:020000040000FA
:020000001028C6
:100020008501860187018316FF30860007309F0017
:10003000F0308500BD308700AE309200831203138C
:10004000313090007E309200A101A201A301A401F1
:10005000A001AE01C4208714AA200730A600D33027
:100060008F0000308E00061851282E1086185F2849
:10007000AE1006196D282E1186197B28AE118C182A
:10008000A1200C1C33280C10A108031D8920A208F4
:10009000031D8F20A308031D9520A408031D9B208A
:1000A0002F28A108031956282E1436282E18362872
:1000B0002608A100013085044130CD203628A20851
:1000C00003196428AE143928AE1839282608A2006E
:1000D000023085044230CD203928A3080319722844
:1000E0002E153C282E193C282608A3000430850430
:1000F0004330CD203C28A40803198028AE153F28A2
:10010000AE193F282608A400083085044430CD20CD
:100110003F28A103031D0800FE3085050800A20347
:10012000031D0800FD3085050800A303031D08001A
:10013000FB3085050800A403031D0800F730850582
:1001400008008C10A908031DA8285830CD200800ED
:10015000A90308003130900022308F008E01013059
:100160008500BD2002308500BD2004308500BD2003
:1001700008308500BD20850108000C1CBD282230F8
:100180008F008E010C10080083162E30990020304D
:10019000980083129030980008000C1ECD2899001A
:0A01A00091018C101430A900080032
:02400E00F13F80
:00000001FF
