:020000040000FA
:020000001028C6
:02000800562977
:04000A00003400348A
:10002000A101A401831203138501860187018316B0
:10003000003086000030850007309F00FB308700CD
:1000400083120313592174210616C3203D218616FD
:100050000030B000152160216B210C184D20241AAE
:1000600050200B1954208C1A36202D283D205E205C
:100070008F018E01A40186120800181943289818D0
:1000800048281A080800181218161A0885120800BD
:10009000181218161A0885120800A40A0C10080075
:1000A000C3208616A40108000B11B10B080006132B
:1000B000A1118316FF30810083120800A118AE2819
:1000C000A500A509A50A41302507031D6D28261C9A
:1000D0006D28A1140130A800080042302507031D37
:1000E0007728A61C7728A1140130A8000800433007
:1000F0002507031D8128261DA928A1140130A80069
:10010000080058302507031D8628080049302507B8
:10011000031D9228B008031908002030B0023008EF
:100120009500080044302507031D9F28C030300289
:10013000031908002030B00730089500080053303C
:100140002507031DA9280617A1156E211030B1003F
:1001500008005A3025070319C3200800A300280807
:1001600027060319B6280310A80D08002312A312AE
:100170002308A9000608F039230686000612A110FC
:10018000A801CE2008000608A2002214A2142215FD
:10019000A21522162208860085010800A908031965
:1001A000F728A903A9080319FA28A903A90803191C
:1001B000FD28A903A90803190029A903A9080319FF
:1001C0000329A903A90803190629A903A9080319E2
:1001D0000929A903A90803190C29A903A9080319C6
:1001E0000F29A903A90803191229850108003F3026
:1001F000850008000730850008003F3085000800B2
:100200003F30850008003730850008003F3085000A
:1002100008003F30850008002730850008003F3087
:10022000850008003730850008000130A700070866
:10023000A200A21322132211A20803193729A2181F
:1002400024290130A6002B29221829290230A600D2
:100250002B290430A6002210A210A20CA20CA20C82
:10026000A20803193629A203A70D302908007D2111
:1002700086164B2186124B2138290708A2003830F8
:10028000A205A20CA20CA20CA20A2208A300B6206E
:100290004B21C32008008030A2005121A20B4D2920
:1002A00008008C108C1C52298C10080021140C1092
:1002B00009007E30920039308316920083120800C4
:1002C00006309200FF3083169200831230089500AA
:1002D0000C3097000800213090000800810183163F
:1002E000C73081008312080083162E309900203019
:1002F000980083129030980008004B21A301B6208B
:100300004B21A30AB6204B21A30AB6204B21A30AF6
:10031000B6204B21A30AB6204B21A30AB6204B21BD
:10032000A30AB6204B21A30AB6204B21A30AB6206C
:080330004B21C3207D290800C8
:02400E00F13F80
:00000001FF
